:100000000C945B010C948C010C948C010C948C016D
:100010000C948C010C948C010C948C010C948C012C
:100020000C948C010C948C010C948C010C948C011C
:100030000C948C010C948C010C948C010C948C010C
:100040000C948C010C948C010C948C010C948C01FC
:100050000C948C010C948C010C948C010C947709F9
:100060000C948C010C94EB090C94C1090C948C0138
:100070000C948C010C948C010C948C010C948C01CC
:100080000C948C010C948C010C948C010C948C01BC
:100090000C948C010C948C010C948C010C948C01AC
:1000A0000C948C010C948C010C948C010C948C019C
:1000B0000C948C010C948C010C948C010C948C018C
:1000C0000C948C010C948C010C948C010C948C017C
:1000D0000C948C010C948C010C948C010C948C016C
:1000E0000C948C010C94BE010C94ED010C94BA019B
:1000F0000C94F2020C948D040C94E7010C94E3012F
:100100000C94AC010C9454030C94C7010C94F101B1
:100110000C9441040C94E3020C948C030C94DF01C6
:100120000C94B2010C94210A0C94B6020C94D101E7
:100130000C9430040C94B6010C94D9010C94460331
:100140000C94EC010C94D9030C94D5010C942A0462
:100150000C94CB010C94C1014E414E494E49545967
:10016000494E46CDCCCC3D0AD7233C17B7D1387782
:10017000CC2B329595E6241FB14F0A000020410098
:1001800000C84200401C4620BCBE4CCA1B0E5AAEE2
:10019000C59D74000020002300260029002C002F9C
:1001A00000320000010000030106010901000021E6
:1001B00000240027002A002D003000330001010038
:1001C00000040107010A0100002200250028002B7D
:1001D000002E003100340002010000050108010B6F
:1001E0000105050505070508080808020202020ABC
:1001F0000A080804040404010101010101010103CA
:1002000003030303030303040707070C0C0C0C0C84
:100210000C0C0C0202020206060606060606060B77
:100220000B0B0B0B0B0B0B010210202008081020EE
:100230004010204080020102010804020101020472
:100240000810204080804020100804020180040231
:100250000180402010080402010804020101020488
:100260000810204080010204081020408000000A8D
:100270000B02090C0D0E080703040100000000002A
:10028000000000000000000000000000000000006E
:10029000000000000000000000121110000000002B
:1002A000000000000000000000000000000000004E
:1002B00000000000210A11241FBECFEFD1E2DEBFF3
:1002C000CDBF00E00CBF23E0AEE7B2E001C01D925D
:1002D000A037B207E1F712E0A0E0B2E0E0E6F7E213
:1002E00000E00BBF02C007900D92AE37B107D9F7FF
:1002F00011E0CBE5D1E000E006C021970109802F95
:10030000FE010E940510CA35D10780E00807A9F751
:100310000E94A60A0C94AE130C9400008150823106
:1003200008F05AC0E82FF0E08827E656FE4F8F4FBE
:100330000C940510BA01BE01AC01B201B601EC018A
:10034000C101C701CB01D101D501D901DF01E30111
:10035000EC01E701ED01F101809180008F7780933E
:1003600080000895809180008F7DF9CF809180007A
:10037000877FF5CF84B58F7784BD089584B58F7D51
:10038000FBCF8091B0008F778093B000089580916B
:10039000B0008F7DF9CF809190008F77809390008F
:1003A0000895809190008F7DF9CF80919000877F94
:1003B000F5CF8091A0008F778093A0000895809161
:1003C000A0008F7DF9CF8091A000877FF5CF80912D
:1003D00020018F77809320010895809120018F7DE7
:1003E000F9CF80912001877FF5CF1F93CF93DF93C3
:1003F000282F30E0F901E359FD4F8491F901E95DBF
:10040000FD4FD491F901EF51FE4FC491CC23A9F0D7
:10041000162F81110E948E01EC2FF0E0EE0FFF1FCE
:10042000E953FE4FA591B4918FB7F894EC91111157
:1004300008C0D095DE23DC938FBFDF91CF911F9151
:100440000895DE2BF8CFCF93DF9390E0FC01E95DB8
:10045000FD4F24918F519E4FFC0184918823C9F058
:1004600090E0880F991FFC01E355FE4FA591B491D0
:10047000FC01E953FE4FC591D49161110DC09FB7A6
:10048000F8948C91209582238C938881282328834B
:100490009FBFDF91CF910895623051F49FB7F894D8
:1004A0003C91822F809583238C93E8812E2BEFCF74
:1004B0008FB7F894EC912E2B2C938FBFEACF3FB7D8
:1004C000F8948091830290918402A0918502B0916A
:1004D000860226B5A89B05C02F3F19F00196A11DE5
:1004E000B11D3FBFBA2FA92F982F8827BC01CD017E
:1004F000620F711D811D911D42E0660F771F881FDD
:10050000991F4A95D1F708958F929F92AF92BF920B
:10051000CF92DF92EF92FF924B015C010E945F024B
:100520006B017C010E945F026C197D098E099F0995
:10053000683E734081059105A8F321E0821A910875
:10054000A108B10888EEC80E83E0D81EE11CF11C9A
:1005500081149104A104B10429F7FF90EF90DF907A
:10056000CF90BF90AF909F908F900895AF92BF9221
:10057000CF92DF92EF92FF920F931F93CF93DF936F
:100580006C017B018B01040F151FEB015E01AE189E
:10059000BF08C017D10759F06991D601ED91FC91C0
:1005A0000190F081E02DC6011995892B79F7C501DD
:1005B000DF91CF911F910F91FF90EF90DF90CF903F
:1005C000BF90AF900895FC01538D448D252F30E0EE
:1005D000842F90E0821B930B541710F0CF96089550
:1005E00001970895FC01918D828D981761F0A28D7D
:1005F000AE0FBF2FB11D5D968C91928D9F5F9F7343
:10060000928F90E008958FEF9FEF08952FB7F894A1
:100610008091870290918802A0918902B0918A020C
:100620002FBF8093930290939402A0939502B0936E
:1006300096028BE892E00E94F20297FF26C02FB745
:10064000F8948091870290918802A0918902B091DC
:100650008A022FBF409193025091940260919502BB
:1006600070919602841B950BA60BB70B40918F02DD
:1006700050919002609191027091920284179507B7
:10068000A607B707B0F28FEF9FEF0895FC01918D99
:10069000828D981731F0828DE80FF11D858D90E0E5
:1006A00008958FEF9FEF0895FC01918D228D892F82
:1006B00090E0805C9F4F821B91098F73992708956A
:1006C0008BE892E00E94540321E0892B09F420E09A
:1006D000822F0895FC01A48DA80FB92FB11DA35A34
:1006E000BF4F2C91848D90E001968F739927848F52
:1006F000A689B7892C93A089B1898C918370806475
:100700008C93938D848D981306C00288F389E02D15
:1007100080818F7D80830895EF92FF920F931F93C6
:10072000CF93DF93EC0181E0888F9B8D8C8D9813A4
:100730001AC0E889F989808185FF15C09FB7F894B0
:10074000EE89FF896083E889F989808183708064FC
:1007500080839FBF81E090E0DF91CF911F910F9147
:10076000FF90EF900895F62E0B8D10E00F5F1F4F56
:100770000F731127E02E8C8D8E110CC00FB607FC65
:10078000FACFE889F989808185FFF5CFCE010E94F3
:100790006A03F1CFEB8DEC0FFD2FF11DE35AFF4FF4
:1007A000F0829FB7F8940B8FEA89FB898081806281
:1007B000CFCFCF93DF93EC01888D8823B9F0AA893E
:1007C000BB89E889F9898C9185FD03C0808186FD0C
:1007D0000DC00FB607FCF7CF8C9185FFF2CF80815B
:1007E00085FFEDCFCE010E946A03E9CFDF91CF9163
:1007F000089580E090E0892B29F00E946003811128
:100800000E94000080E090E0892B49F080E090E0B9
:10081000892B29F00E94000081110E94000080E0D5
:1008200090E0892B49F080E090E0892B29F00E942C
:10083000000081110E94000080E090E0892B49F0C7
:1008400080E090E0892B29F00E94000081110C9437
:100850000000089580E290E0089580E890E0089517
:10086000FC01248935892F3F320751F061E0FC01FA
:1008700086899789019709F460E0822F0C94F5012D
:100880000895CF92DF92EF92FF92FC01248935897F
:100890002F3F320729F0FC016689822F0E94F50163
:1008A0000E945F026B017C010E945F026C197D094E
:1008B0008E099F096230710581059105A8F3FF90AB
:1008C000EF90DF90CF900895EF92FF920F931F93D8
:1008D000CF93DF938C017B01C1E0D0E0D801ED9193
:1008E000FC910190F081E02DC80119958C179D07AE
:1008F00034F0CE15DF0571F4F801D18FC08FD80127
:1009000058968D919C91DF91CF911F910F91FF90FF
:10091000EF900895CC0FDD1FE1CF0F931F93CF937E
:10092000DF93EC010E9464048EAD9FAD019649F007
:100930008E01005C1F4FF801808191818F3F9807E5
:1009400039F4888D998DDF91CF911F910F91089582
:1009500061E00E94230261E0888D998D08970CF474
:1009600060E0F80180810E94F501888D998D8430C6
:100970009105E9F05CF48130910581F0029709F767
:1009800061E08EAD0E94230261E00DC080319105CF
:10099000B9F38032910559F0089799F661E08EAD70
:1009A0000E94230260E08EAD0E94F501CACF60E094
:1009B0008EAD0E942302C5CFFC0101900020E9F713
:1009C0003197AF01481B590BBC018BE892E00C94A6
:1009D000B6028F929F92AF92BF920F931F93CF93C5
:1009E000DF93CDB7DEB7A1970FB6F894DEBF0FBE89
:1009F000CDBF19A2423008F44AE08E010F5D1F4FAF
:100A0000842E912CB12CA12CA50194010E94C40F1D
:100A1000E62FB901CA01EA30F4F4E05DD801EE93A3
:100A20008D01232B242B252B79F790E080E0109764
:100A300019F0CD010E94DC04A1960FB6F894DEBF38
:100A40000FBECDBFDF91CF911F910F91BF90AF909F
:100A50009F908F900895E95CE1CF4F925F926F92E3
:100A60007F928F929F92AF92BF92CF92DF92EF923E
:100A7000FF926B017C01AC019B010E9475118823E0
:100A8000C1F084E292E00E94DC047C0180E392E009
:100A90000E94DC048E0D9F1DFF90EF90DF90CF90A1
:100AA000BF90AF909F908F907F906F905F904F908E
:100AB000089546015701E894B7F82FEF3FEF4FE74D
:100AC0005FE7C501B4010E94751181110DC02FEFC0
:100AD0003FEF4FE75FE7C501B4010E94730E1816A0
:100AE0001CF488E292E0CFCF2FEF3FEF4FE75FE4B7
:100AF000C701B6010E942A1118161CF48CE292E07C
:100B0000C2CF2FEF3FEF4FE75FECC701B6010E9466
:100B1000730E87FDF3CF20E030E0A901C701B601D5
:100B20000E94730EB12CA12C87FF0AC06DE28BE8E6
:100B300092E00E948C035C01F7FAF094F7F8F094CD
:100B40002AE037ED43EA5BE3C701B6010E941610C5
:100B50002B013C010E94FB106B017C010E94780E6E
:100B60009B01AC01C301B2010E9415102B013C0195
:100B70004AE0C701B6010E94E9047C01EA0CFB1CB3
:100B80006EE28BE892E00E948C03E80EF91E20E0F2
:100B900030E040E251E4C301B2010E94D90E2B01C2
:100BA0003C010E94FB104B01B12CA12C4AE0C50175
:100BB000B4010E94E904E80EF91EC501B4010E94C7
:100BC000780E9B01AC01C301B2010E94151020E018
:100BD00030E040E251E40E94D90E0E94FB1090E008
:100BE00080E04AE00E94E904E80EF91E4FCF4F92E0
:100BF0005F926F927F928F929F92AF92BF92CF92AD
:100C0000DF92EF92FF920F931F93CF93DF93CDB7B5
:100C1000DEB72E970FB6F894DEBF0FBECDBF2B0107
:100C20003C01DC01CB0180959095A095B09588277B
:100C3000B7FD83959927AA27BB27909365038093D7
:100C4000640310922E0310922F031092300310921F
:100C5000310377FE08C07094609450944094411C16
:100C6000511C611C711C40925003509251036092C0
:100C700052037092530310924C0310924D03109242
:100C80004E0310924F0310922A0310922B031092DE
:100C90002C0310922D038090420390904303A09068
:100CA0004403B09045036091360370913703072EDB
:100CB000000C880B990B0E947A0E69837A838B83D0
:100CC0009C836091400370914103072E000C880BB8
:100CD000990B0E947A0E6B017C01809146039091E2
:100CE0004703019709F094C1A501940169817A81B4
:100CF0008B819C810E94D90E20E030E040E752E4D5
:100D00000E94821069837A838B839C83209148039D
:100D1000309149033E872D879B01AC010E94D90E7B
:100D20004B015C016D857E85660F771F072E000CD9
:100D3000880B990B0E947A0E9B01AC01C501B4018E
:100D40000E948210A70196010E94D90E0E94F41001
:100D50004B015C018092540390925503A09256037C
:100D6000B092570300914A0310914B03C801012E22
:100D7000000CAA0BBB0B8D839E83AF83B8878D8538
:100D80009E85092E000CAA0BBB0B89879A87AB871F
:100D9000BC879C01AD01C501B4010E94B40F2D8137
:100DA0003E814F8158850E94E60F2093580330936F
:100DB000590340935A0350935B03820E931EA41E63
:100DC000B51E481459046A047B0434F5A30192014A
:100DD0006D817E818F8198850E94B40F2D853E851F
:100DE000200F311F032E000C440B550B0E94E60F01
:100DF0002093540330935503409356035093570365
:100E0000421A530A640A750A4092580350925903D1
:100E100060925A0370925B0369857A858B859C8505
:100E20000E947A0E9B01AC0160E070E080E090E4EB
:100E30000E948210A70196010E9482100E94351123
:100E400020E03AE045E259E40E94D90E0E94F410F5
:100E500060935C0370935D0380935E0390935F03E4
:100E600029813A814B815C8160E074E284E799E4F6
:100E70000E948210A70196010E9482100E94F41025
:100E800060936003709361038093620390936303A4
:100E90008091500390915103A0915203B09153035C
:100EA000181619061A061B060CF0BDC180903203F5
:100EB00090903303A0903403B090350381149104D3
:100EC000A104B104E1F0C0902E03D0902F03E09074
:100ED0003003F0903103C114D104E104F10421F492
:100EE0000E945F026B017C010E945F026C197D0908
:100EF0008E099F09681579058A059B05A8F36091FD
:100F00006403809138030E94F50161E080913A0307
:100F10000E94F5010E945F0269837A838B839C8320
:100F2000C0905C03D0905D03E0905E03F0905F039F
:100F30008091500390915103A0915203B0915303BB
:100F4000181619061A061B060CF0FAC09C01AD0112
:100F50002150310941095109209350033093510325
:100F6000409352035093530380914C0390914D034F
:100F7000A0914E03B0914F030196A11DB11D809326
:100F80004C0390934D03A0934E03B0934F03609195
:100F90004603709147036130710509F0D1C02115F6
:100FA00031054105510509F4CBC0409058035090DC
:100FB000590360905A0370905B034216530664060F
:100FC00075060CF078C04091540350915503609120
:100FD000560370915703481759076A077B070CF4AB
:100FE000AFC084179507A607B7070CF400C180911E
:100FF000600390916103A0916203B09163038093B9
:101000005C0390935D03A0935E03B0935F0398C06D
:1010100010925403109255031092560310925703E6
:10102000109258031092590310925A0310925B03C6
:1010300029813A814B815C8160EC71EE84E69CE40D
:101040000E948210A70196010E948210A5019401BE
:101050000E9482100E94F4106B017C01C092600318
:10106000D0926103E0926203F0926303A3019201C4
:101070000E94B40F97FD09C0C0925C03D0925D033B
:10108000E0925E03F0925F0303CFC301B2010E94BE
:101090007A0E9B01AC0160E070E0CB010E948210EF
:1010A0000E94F41060935C0370935D0380935E0371
:1010B00090935F03EDCE40902A0350902B036090F5
:1010C0002C0370902D03ACEFBFEF0E9410104B016A
:1010D0005C01AFEF8A1A9A0AAA0ABA0AC701B601D6
:1010E000660F771F881F991F640D751D861D971D3C
:1010F000A50194010E94E60FD701C601821B930B44
:10110000A40BB50B80935C0390935D03A0935E03E7
:10111000B0935F03BC01CD01660F771F881F991F35
:10112000640D751D861D971DA50194010E94E60F93
:1011300060932A0370932B0380932C0390932D03C9
:101140000E945F022B013C010E945F024616570677
:1011500068067906C9F360E080913A030E94F501C0
:101160000E945F0260932E0370932F0380933003DD
:1011700090933103A981BA816A1B7B0BCB01B0E04C
:10118000A0E08C159D05AE05BF0508F047C0C81A44
:10119000D90AEA0AFB0AC0923203D0923303E092E2
:1011A0003403F09235038091320390913303A09180
:1011B0003403B0913503892B8A2B8B2B09F068CE31
:1011C0002E960FB6F894DEBF0FBECDBFDF91CF9144
:1011D0001F910F91FF90EF90DF90CF90BF90AF9055
:1011E0009F908F907F906F905F904F900895409068
:1011F0002A0350902B0360902C0370902D0342E043
:10120000880F991FAA1FBB1F4A95D1F74C015D019A
:101210002FEF821A920AA20AB20A60CFC12CD12CF7
:101220007601C394B8CF10922E0310922F03109220
:101230003003109231031092320310923303109254
:10124000340310923503AFCF0F931F93CF93DF93E7
:10125000EC0188819981009759F02A813B812617FA
:10126000370730F081E0DF91CF911F910F91089502
:101270008B016F5F7F4F0E94B412009759F09983E2
:1012800088831B830A832C813D81232B59F7FC0122
:101290001082E8CF80E0E7CFEF92FF920F931F9389
:1012A000CF93DF93EC017B018A01BA010E942409EC
:1012B00028813981811114C02115310519F0C90126
:1012C0000E942B12198218821D821C821B821A8294
:1012D000CE01DF91CF911F910F91FF90EF90089574
:1012E0001D830C83B701C9010E94A713F1CF1F9280
:1012F0000F920FB60F9211242F933F938F939F93CA
:10130000AF93BF938091870290918802A091890248
:10131000B0918A023091820223E0230F2D3758F5D5
:101320000196A11DB11D20938202809387029093A4
:101330008802A0938902B0938A02809183029091DF
:101340008402A0918502B09186020196A11DB11D73
:101350008093830290938402A0938502B0938602C7
:10136000BF91AF919F918F913F912F910F900FBEA1
:101370000F901F90189526E8230F0296A11DB11D0E
:10138000D2CF1F920F920FB60F9211240BB60F926D
:101390002F933F934F935F936F937F938F939F937D
:1013A000AF93BF93EF93FF938BE892E00E946A03A1
:1013B000FF91EF91BF91AF919F918F917F916F912D
:1013C0005F914F913F912F910F900BBE0F900FBEE9
:1013D0000F901F9018951F920F920FB60F92112425
:1013E0000BB60F922F938F939F93EF93FF93E09100
:1013F0009B02F0919C028081E091A102F091A202F7
:1014000082FD1DC090818091A4028F5F8F73209117
:10141000A502821741F0E091A402F0E0E557FD4FEC
:10142000958F8093A402FF91EF919F918F912F91BF
:101430000F900BBE0F900FBE0F901F9018958081DC
:10144000F2CFEBE8F2E01382128288EE93E0A0E0A4
:10145000B0E084839583A683B7838AE092E091838A
:10146000808385EC90E09587848784EC90E0978773
:10147000868780EC90E0918B808B81EC90E0938B61
:10148000828B82EC90E0958B848B86EC90E0978B3E
:10149000868B118E128E138E148EE8E2F3E0168284
:1014A000178210861186128613861486158684E1AB
:1014B00090E09787868788E090E0918B808B89E029
:1014C00090E0938B828B8DE090E0958B848B81E014
:1014D00090E0978B868B918F808F128E138E148E57
:1014E000158E178E168E88EE93E091A380A393A39A
:1014F00082A314A615A616A617A610A611A612A6B4
:1015000013A615AE14AE10AA11AA12AA13AA14AAF1
:1015100015AA16AA17AA10AE11AE12AE13AE1282F9
:1015200013821482158214A215A216A217A28CE1AE
:1015300092E0918380838AE090E097AF86AF8BE062
:1015400090E090936903809368030895CF93DF93AD
:10155000CDB7DEB72E970FB6F894DEBF0FBECDBF66
:10156000789484B5826084BD84B5816084BD85B57E
:10157000826085BD85B5816085BD80916E0081608A
:1015800080936E0010928100809181008260809330
:101590008100809181008160809381008091800032
:1015A0008160809380008091B10084608093B1005D
:1015B0008091B00081608093B00080919100826042
:1015C000809391008091910081608093910080913F
:1015D00090008160809390008091A1008260809350
:1015E000A1008091A10081608093A1008091A00062
:1015F00081608093A000809121018260809321010D
:10160000809121018160809321018091200181607E
:101610008093200180917A00846080937A00809189
:101620007A00826080937A0080917A008160809352
:101630007A0080917A00806880937A001092C100CD
:1016400062E087E00E942302E0919B02F0919C02FD
:1016500082E08083E0919702F09198021082E091FD
:101660009902F0919A028FEC80831092A302E0918C
:101670009F02F091A00286E08083E0919D02F091AC
:101680009E02808180618083E0919D02F0919E02A4
:10169000808188608083E0919D02F0919E0280812C
:1016A00080688083E0919D02F0919E0280818F7D11
:1016B000808361E0809138030E94230261E0809181
:1016C00038030E94F50161E080913A030E942302F1
:1016D00060E080913A030E94F50180913C03909173
:1016E0003D038F3F980739F061E00E94230288E2B2
:1016F00093E00E94300480E090E0A0EFB2E4809399
:10170000420390934303A0934403B093450361E0E5
:1017100070E088E293E00E948D0488E293E00E94EA
:10172000410488E293E00E94300468EE73E080E0B8
:1017300090E00E94840204E712E09EE2E92E92E02B
:10174000F92E28EEC22E21E0D22E18861F821A868C
:1017500019861C861B8641E050E063E372E0CE01EF
:1017600007960E944C098BE892E00E9454031816D9
:1017700019060CF029C11A8219821C821B821E8252
:101780001D8250E040E062E372E0CE0101960E94CB
:101790004C090E940603AD80BE8097FD1AC08D875C
:1017A0001E868FEFA81AB80AB501CE0101960E94D5
:1017B0002409882371F329813A818D819E81BE019C
:1017C000635F7F4F820F931F0E94A713BE82AD827B
:1017D000E0CF89809A80AB2809F44EC065E372E0BF
:1017E000C4010E949E13892B09F046C0F801849120
:1017F000F701A490F601B490BB2029F181110E9459
:101800008E01EB2DF0E0EE0FFF1FED56FE4FA59180
:10181000B4918C91A822B9F088E293E00E9441042F
:101820006AE070E080E090E00E94840261E070E095
:1018300088E293E00E948D046AE070E080E090E02E
:101840000E94F705D3CF10927E0210927F02109271
:1018500080021092810250E040E062E372E0CE012B
:1018600001960E944C098FE392E00E94DC0480E321
:1018700092E00E94DC04A2C08114910409F45EC0CD
:10188000C4010E94F00C4B015C0120E030E048EC08
:1018900052E4C501B4010E94D90E0E94F410617097
:1018A0007727672B09F099C020E030E0A901C50136
:1018B000B4010E94730E882309F48FC088E293E07C
:1018C0000E9441046AE070E080E090E00E9484029F
:1018D00061E070E088E293E00E948D046AE070E0CD
:1018E00080E090E00E94840220E030E040EA51E491
:1018F000C501B4010E94D90E9B01AC016DEC7CECDA
:101900008CEC9EE30E9482109B01AC0160E070E0D1
:1019100080E89FE30E9482104B015C010E94F4105A
:101920000E94F7058BE892E00E94540318161906EE
:101930004CF48BE892E00E94F202F4CF812C912CBF
:101940005401A3CFA501940160917E0270917F02A2
:1019500080918002909181020E94161060937E0215
:1019600070937F028093800290938102C501B4013D
:101970000E942D0560917E0270917F02809180020D
:10198000909181020E942D052DEC3CEC4CEC5EE325
:1019900060917E0270917F0280918002909181021D
:1019A0000E94D90E20E030E040EA51E40E9482100B
:1019B0000E942D0588E293E00E94300489819A817B
:1019C000009711F00E942B128F819885009711F0DB
:1019D0000E942B120E94F903B8CE87E592E045CF12
:1019E000662777270C94F40C8F929F92AF92BF9248
:1019F000CF92DF92EF92FF920F931F93CF93DF93DB
:101A00005C017B016115710519F0DB018D939C93DD
:101A100085010F5F1F4FF501D0818D2F90E00E944F
:101A2000520E6C01892BB9F5DD32B9F50F5F1F4FEE
:101A3000D5011196DC91C1E05801F1E0AF1AB1086F
:101A400043E050E060E671E0C5010E945B0E892B27
:101A500069F5680182E0C80ED11C45E050E06BE5F5
:101A600071E0C6010E945B0E892B21F4680197E0AA
:101A7000C90ED11CE114F10419F0D701CD92DC920A
:101A800060E070E080E89FEFC111FFC060E070E0AF
:101A900080E89FE7FAC05801BBCFDB3229F485010B
:101AA0000E5F1F4FF501D181C0E0C6CF43E050E08B
:101AB00068E571E0C5010E945B0E892BE9F0F80131
:101AC00010E000E020E030E0A9015F01B0ED8B2ED6
:101AD0008D0E89E08815C8F19C2E689491F88C2FA2
:101AE0008870C2FF16C0811102C00F5F1F4F319670
:101AF000D501DC91C92DE9CFE114F10429F00E5F85
:101B00001F4FF7011183008360E070E080EC9FE7D6
:101B1000BCC0882311F001501109A5E0B0E00E947B
:101B20009A0F9B01AC01220F331F441F551F280D34
:101B3000311D411D511D283999E93907490799E19E
:101B40005907A8F2C6609C2ED2CFAEEF8A1206C00B
:101B5000C3FD3CC09C2E689493F8C9CFDF7DD5347B
:101B6000A9F580818D3239F4C061DF01129681813F
:101B700062E070E006C0DF018B32C1F3119661E0D4
:101B800070E080535D01A61AB70A8A30F8F4E0E8E5
:101B9000CE16ECE0DE065CF4B601660F771F660F2A
:101BA000771FC60ED71ECC0CDD1CC80ED11C5D01E4
:101BB000FFEFAF1ABF0A8C9180538A30A8F1C4FF9F
:101BC00003C0D194C194D1080C0D1D1DC1FF09C0E3
:101BD000E114F10431F081E0A81AB108D701AD9207
:101BE000BC92CA01B9010E94780EC370C33009F4D7
:101BF00090584B015C0120E030E0A9010E94730E77
:101C0000882309F440C0CFE8D1E017FF05C0119543
:101C100001951109C7E7D1E06E01B8E1CB1AD108EF
:101C200080E2E82EF12C0FC0D501B1CFFE01259145
:101C30003591459154910E191F09C501B4010E94B7
:101C4000D90E4B015C01D501C4010E151F0574F7B7
:101C50002497F594E794CC16DD06A9F78A2F880F10
:101C60008B2F881F8F3F49F020E030E0A901C5018C
:101C7000B4010E94730E811106C082E290E090933D
:101C80006B0380936A03C501B401DF91CF911F916B
:101C90000F91FF90EF90DF90CF90BF90AF909F900B
:101CA0008F90089591110C94460F803219F089504D
:101CB0008550C8F70895FB01DC014150504088F081
:101CC0008D9181341CF08B350CF4805E659161340C
:101CD0001CF06B350CF4605E861B611171F3990B7F
:101CE0000895881BFCCF0E94B50E08F481E008958A
:101CF000E89409C097FB3EF49095809570956195A6
:101D00007F4F8F4F9F4F9923A9F0F92F96E9BB275B
:101D10009395F695879577956795B795F111F8CFD7
:101D2000FAF4BB0F11F460FF1BC06F5F7F4F8F4F42
:101D30009F4F16C0882311F096E911C0772321F038
:101D40009EE8872F762F05C0662371F096E8862FD0
:101D500070E060E02AF09A95660F771F881FDAF727
:101D6000880F9695879597F90895990F0008550F54
:101D7000AA0BE0E8FEEF16161706E807F907C0F011
:101D800012161306E407F50798F0621B730B840B19
:101D9000950B39F40A2661F0232B242B252B21F4F3
:101DA00008950A2609F4A140A6958FEF811D811D93
:101DB00008950E94EC0E0C94600F0E94520F38F0B0
:101DC0000E94590F20F0952311F00C94490F0C94A8
:101DD0004F0F11240C94940F0E94710F70F3959F74
:101DE000C1F3950F50E0551F629FF001729FBB2712
:101DF000F00DB11D639FAA27F00DB11DAA1F649FAE
:101E00006627B00DA11D661F829F2227B00DA11D60
:101E1000621F739FB00DA11D621F839FA00D611DE6
:101E2000221F749F3327A00D611D231F849F600D07
:101E3000211D822F762F6A2F11249F5750409AF030
:101E4000F1F088234AF0EE0FFF1FBB1F661F771FBC
:101E5000881F91505040A9F79E3F510580F00C9487
:101E6000490F0C94940F5F3FE4F3983ED4F38695AA
:101E700077956795B795F795E7959F5FC1F7FE2B27
:101E8000880F911D9695879597F90895992788272A
:101E9000089597F99F6780E870E060E008959FEFEC
:101EA00080EC089500240A941616170618060906F1
:101EB000089500240A9412161306140605060895C0
:101EC000092E0394000C11F4882352F0BB0F40F448
:101ED000BF2B11F460FF04C06F5F7F4F8F4F9F4F88
:101EE000089557FD9058440F551F59F05F3F71F00A
:101EF0004795880F97FB991F61F09F3F79F0879571
:101F00000895121613061406551FF2CF4695F1DFF9
:101F100008C0161617061806991FF1CF8695710589
:101F2000610508940895E894BB2766277727CB01BD
:101F300097F908950E94A50FA59F900DB49F900D4D
:101F4000A49F800D911D11240895A29FB001B39FFD
:101F5000C001A39F700D811D1124911DB29F700DB2
:101F6000811D1124911D0895DB018F939F930E9481
:101F70009A0FBF91AF91A29F800D911DA39F900DCD
:101F8000B29F900D11240895A1E21A2EAA1BBB1B2B
:101F9000FD010DC0AA1FBB1FEE1FFF1FA217B30735
:101FA000E407F50720F0A21BB30BE40BF50B661F4B
:101FB000771F881F991F1A9469F76095709580950F
:101FC00090959B01AC01BD01CF010895052E97FBB3
:101FD0001EF400940E94FD0F57FD07D00E94C40F0D
:101FE00007FC03D04EF40C94FD0F509540953095AE
:101FF00021953F4F4F4F5F4F089590958095709575
:1020000061957F4F8F4F9F4F0895EE0FFF1F881FE1
:102010008BBF0790F691E02D1994B7FF0C949A0F9F
:102020000E949A0F821B930B08955058BB27AA2732
:102030000E942D100C94600F0E94520F38F00E94E5
:10204000590F20F039F49F3F19F426F40C944F0FE8
:102050000EF4E095E7FB0C94490FE92F0E94710FF5
:1020600058F3BA17620773078407950720F079F4CD
:10207000A6F50C94930F0EF4E0950B2EBA2FA02D1D
:102080000B01B90190010C01CA01A0011124FF2725
:10209000591B99F0593F50F4503E68F11A16F04020
:1020A000A22F232F342F4427585FF3CF469537951F
:1020B0002795A795F0405395C9F77EF41F16BA0BE4
:1020C000620B730B840BBAF09150A1F0FF0FBB1F92
:1020D000661F771F881FC2F70EC0BA0F621F731FDB
:1020E000841F48F4879577956795B795F7959E3F38
:1020F00008F0B0CF9395880F08F09927EE0F9795C9
:10210000879508950E9496100C94600F0E94590FB5
:1021100058F00E94520F40F029F45F3F29F00C94D0
:10212000490F51110C94940F0C944F0F0E94710F92
:1021300068F39923B1F3552391F3951B550BBB27F6
:10214000AA2762177307840738F09F5F5F4F220F3B
:10215000331F441FAA1FA9F335D00E2E3AF0E0E832
:1021600032D091505040E695001CCAF72BD0FE2F7C
:1021700029D0660F771F881FBB1F26173707480710
:10218000AB07B0E809F0BB0B802DBF01FF279358C8
:102190005F4F3AF09E3F510578F00C94490F0C9434
:1021A000940F5F3FE4F3983ED4F386957795679557
:1021B000B795F7959F5FC9F7880F911D96958795FD
:1021C00097F90895E1E0660F771F881FBB1F62171C
:1021D00073078407BA0720F0621B730B840BBA0BDA
:1021E000EE1F88F7E09508950E94FB106894B111E6
:1021F0000C94940F08950E94790F88F09F5798F0DF
:10220000B92F9927B751B0F0E1F0660F771F881FFB
:10221000991F1AF0BA95C9F714C0B13091F00E9415
:10222000930FB1E008950C94930F672F782F8827B0
:10223000B85F39F0B93FCCF3869577956795B3953C
:10224000D9F73EF490958095709561957F4F8F4FAB
:102250009F4F08950E94B50E08F48FEF089519F46A
:1022600016F40C944F0F0C947A110E94790FB8F366
:102270009923C9F3B6F39F57550B87FF0E94881126
:102280000024A0E640EA900180585695979528F4DE
:10229000805C660F771F881F20F0261737074807D6
:1022A00030F4621B730B840B202931294A2BA6952D
:1022B00017940794202531254A2758F7660F771F72
:1022C000881F20F026173707480730F4620B730B7E
:1022D000840B200D311D411DA09581F7B901842F7C
:1022E0009158880F9695879508950E94B50E880B92
:1022F000990B08959F3F31F0915020F48795779581
:102300006795B795880F911D9695879597F90895CC
:1023100091505040660F771F881FD2F708950F9392
:102320001F93CF93DF938230910510F482E090E009
:10233000E0916E03F0916F0330E020E0B0E0A0E0A8
:10234000309799F42115310509F44AC0281B390B3F
:1023500024303105D8F58A819B816115710589F199
:10236000FB0193838283FE0111C040815181028170
:10237000138148175907E0F04817590799F4109747
:1023800061F012960C93129713961C933296CF011C
:10239000DF91CF911F910F91089500936E031093D9
:1023A0006F03F4CF2115310551F04217530738F070
:1023B000A901DB019A01BD01DF01F801C1CFEF01E5
:1023C000F9CF90936F0380936E03CDCFFE01E20FA0
:1023D000F31F819391932250310939832883D7CFFA
:1023E00020916C0330916D03232B41F42091020264
:1023F0003091030230936D0320936C03209100020F
:10240000309101022115310541F42DB73EB74091BD
:10241000040250910502241B350BE0916C03F091EE
:102420006D03E217F307A0F42E1B3F0B28173907A3
:1024300078F0AC014E5F5F4F2417350748F04E0F20
:102440005F1F50936D0340936C03819391939FCFD3
:10245000F0E0E0E09CCFCF93DF930097E9F0FC0140
:10246000329713821282A0916E03B0916F03ED0137
:1024700030E020E01097A1F420813181820F931F7A
:1024800020916C0330916D032817390709F061C062
:10249000F0936D03E0936C03DF91CF910895EA010F
:1024A000CE17DF07E8F54A815B819E014115510592
:1024B000B1F7E901FB83EA8349915991C40FD51F14
:1024C000EC17FD0761F4808191810296840F951FBE
:1024D000E90199838883828193819B838A83F0E0D9
:1024E000E0E012968D919C9113970097B9F52D918C
:1024F0003C911197CD010296820F931F20916C039E
:1025000030916D032817390739F6309751F510923D
:102510006F0310926E03B0936D03A0936C03BCCF56
:10252000D383C28340815181840F951FC817D90777
:1025300061F44E5F5F4F88819981480F591F518325
:1025400040838A819B81938382832115310509F021
:10255000B0CFF0936F03E0936E039ECFFD01DC01DB
:10256000C0CF13821282D7CF4F925F926F927F9229
:102570008F929F92AF92BF92CF92DF92EF92FF9293
:102580000F931F93CF93DF938C01009799F4CB01A6
:10259000DF91CF911F910F91FF90EF90DF90CF903F
:1025A000BF90AF909F908F907F906F905F904F9073
:1025B0000C948F11FC01E60FF71F9C01225031098A
:1025C000E217F30708F4AEC0D901CD91DC91119761
:1025D000C617D70720F1C530D10578F0CE01049792
:1025E0008617970750F0C61BD70B2297C193D1933C
:1025F0006D937C93CF010E942B12C801DF91CF9184
:102600001F910F91FF90EF90DF90CF90BF90AF9010
:102610009F908F907F906F905F904F9008955B0197
:10262000AC1ABD0A4C018C0E9D1EA0916E03B09198
:102630006F03512C412CF12CE12C109731F5809136
:102640006C0390916D038815990509F05CC04616DE
:10265000570608F058C0809100029091010200973F
:1026600041F48DB79EB74091040250910502841B3E
:10267000950BE817F90708F055C0F0936D03E09348
:102680006C03F90171836083B8CF8D919C91119790
:1026900012966C90129713967C901397A815B90513
:1026A00059F56C0142E0C40ED11CCA14DB0420F1C0
:1026B000AC014A195B09DA011296159780F0628223
:1026C000738251834083D9016D937C93E114F104AB
:1026D00071F0D7011396FC93EE9312978ECF22964A
:1026E0008C0F9D1FF90191838083F301EFCFF0934D
:1026F0006F03E0936E0381CF4816590608F42C014E
:102700007D01D3019ACFCB010E948F117C010097EC
:1027100049F0AE01B8010E949513C8010E942B1226
:1027200087016BCF10E000E068CFFB01DC0102C045
:1027300001900D9241505040D8F70895FB01DC0103
:102740008D91019080190110D9F3990B0895FB0127
:10275000DC0101900D920020E1F70895F894FFCF7D
:10276000000070038000000000008C03B602E3024A
:10277000D9035403F2024603000000002A048D042A
:10278000410430046E616E00696E66006F7666000B
:102790000D0A00780063616C696272617465004AB9
:1027A000696720686173206265656E2063616C698A
:1027B00062726174656400506C6561736520656E5A
:1027C00074657220612076616C756520776865722A
:0E27D000652056414C25302E30323D30000041
:00000001FF
